:020000040800F2
:1000000000000220FD7300080D1800080F180008FA
:100010001118000813180008151800080000000047
:10002000000000000000000000000000916F0008C8
:10003000171800080000000031700008176B000856
:100040004D7400084D7400084D7400084D7400088C
:100050004D7400084D7400084D7400084D7400087C
:100060004D7400084D7400084D7400084D7400086C
:100070004D7400084D7400084D7400084D7400085C
:1000800019180008291800084D7400084D7400085C
:100090004D7400084D7400084D7400084D7400083C
:1000A0004D7400084D7400084D7400084D7400082C
:1000B000391800084D7400084D7400084D7400088C
:1000C0004D7400084D7400084D7400084D7400080C
:1000D0004D7400084D740008491800084D7400085C
:1000E0004D7400084D7400084D7400084D740008EC
:1000F0004D740008591800084D7400084D7400082C
:100100004D7400084D7400084D7400084D740008CB
:100110004D7400084D7400084D74000875180008EF
:100120004D7400084D7400084D7400084D740008AB
:100130004D74000800000000000000004D7400082D
:100140004D7400084D7400084D7400084D7400088B
:100150004D7400084D7400084D7400084D7400087B
:100160004D7400084D7400084D7400084D7400086B
:100170004D7400084D7400084D7400080000000024
:10018000000000004D7400080000000000000000A6
:100190004D74000800000000000000004D740008CD
:1001A0000000000000000000000000004D74000886
:1001B0004D7400084D7400084D7400084D7400081B
:0401C0004D74000872
:1001D00010B5054C237833B9044B13B10448AFF381
:1001E00000800123237010BDB80200200000000031
:1001F000107A010808B5034B1BB103490348AFF35C
:10020000008008BD00000000BC020020107A010838
:1002100081F0004102E000BF83F0004330B54FEAB7
:1002200041044FEA430594EA050F08BF90EA020F24
:100230001FBF54EA000C55EA020C7FEA645C7FEAB7
:10024000655C00F0E2804FEA5454D4EB5555B8BFDA
:100250006D420CDD2C4480EA020281EA030382EA4B
:10026000000083EA010180EA020281EA0303362DDD
:1002700088BF30BD11F0004F4FEA01314FF4801CB0
:100280004CEA113102D0404261EB410113F0004FC2
:100290004FEA03334CEA133302D0524263EB430379
:1002A00094EA050F00F0A780A4F10104D5F1200E17
:1002B0000DDB02FA0EFC22FA05F2801841F1000172
:1002C00003FA0EF2801843FA05F359410EE0A5F146
:1002D00020050EF1200E012A03FA0EFC28BF4CF077
:1002E000020C43FA05F3C01851EBE37101F000452D
:1002F00007D54FF0000EDCF1000C7EEB00006EEB3A
:100300000101B1F5801F1BD3B1F5001F0CD34908C3
:100310005FEA30004FEA3C0C04F101044FEA44521A
:1003200012F5800F80F09A80BCF1004F08BF5FEAA1
:10033000500C50F1000041EB045141EA050130BD81
:100340005FEA4C0C404141EB0101013C28BFB1F593
:10035000801FE9D291F0000F04BF01460020B1FADE
:1003600081F308BF2033A3F10B03B3F120020CDAB1
:100370000C3208DD02F1140CC2F10C0201FA0CF08F
:1003800021FA02F10CE002F11402D8BFC2F1200CF4
:1003900001FA02F120FA0CFCDCBF41EA0C019040AA
:1003A000E41AA2BF01EB0451294330BD6FEA0404F3
:1003B0001F3C1CDA0C340EDC04F11404C4F12002DE
:1003C00020FA04F001FA02F340EA030021FA04F3F0
:1003D00045EA030130BDC4F10C04C4F1200220FA47
:1003E00002F001FA04F340EA0300294630BD21FA85
:1003F00004F0294630BD94F0000F83F4801306BF4B
:1004000081F480110134013D4EE77FEA645C18BF3E
:100410007FEA655C29D094EA050F08BF90EA020FD5
:1004200005D054EA000C04BF1946104630BD91EACD
:10043000030F1EBF0021002030BD5FEA545C05D1D0
:100440004000494128BF41F0004130BD14F580040F
:100450003CBF01F5801130BD01F0004545F0FE4183
:1004600041F470014FF0000030BD7FEA645C1ABFB8
:10047000194610467FEA655C1CBF0B46024650EAEF
:10048000013406BF52EA033591EA030F41F400211B
:1004900030BD00BF90F0000F04BF0021704730B5A1
:1004A0004FF4806404F132044FF000054FF0000176
:1004B00050E700BF90F0000F04BF0021704730B537
:1004C0004FF4806404F1320410F0004548BF40420C
:1004D0004FF000013EE700BF42004FEAE2014FEA61
:1004E00031014FEA02701FBF12F07F4393F07F4F3C
:1004F00081F06051704732F07F4208BF704793F03F
:100500007F4F04BF41F40021704730B54FF4607451
:1005100001F0004521F000411CE700BF50EA010254
:1005200008BF704730B54FF000050AE050EA0102FD
:1005300008BF704730B511F0004502D5404261EB6D
:1005400041014FF4806404F132045FEA915C3FF4AE
:10055000D8AE4FF003025FEADC0C18BF03325FEA4B
:10056000DC0C18BF033202EBDC02C2F1200300FAFC
:1005700003FC20FA02F001FA03FE40EA0E0021FA21
:1005800002F11444BDE600BF70B54FF0FF0C4CF40F
:10059000E06C1CEA11541DBF1CEA135594EA0C0FC1
:1005A00095EA0C0F00F0DEF82C4481EA030621EAFC
:1005B0004C5123EA4C5350EA013518BF52EA033537
:1005C00041F4801143F4801338D0A0FB02CE4FF0E9
:1005D0000005E1FB02E506F00042E0FB03E54FF019
:1005E0000006E1FB03569CF0000F18BF4EF0010E11
:1005F000A4F1FF04B6F5007F64F5407404D25FEA0D
:100600004E0E6D4146EB060642EAC62141EA5551BF
:100610004FEAC52040EA5E504FEACE2EB4F1FD0C01
:1006200088BFBCF5E06F1ED8BEF1004F08BF5FEA7F
:10063000500E50F1000041EB045170BD06F0004631
:1006400046EA010140EA020081EA0301B4EB5C04DE
:10065000C2BFD4EB0C0541EA045170BD41F48011D6
:100660004FF0000E013C00F3AB8014F1360FDEBFFB
:10067000002001F0004170BDC4F10004203C35DAD7
:100680000C341BDC04F11404C4F1200500FA05F35A
:1006900020FA04F001FA05F240EA020001F00042FB
:1006A00021F0004110EBD37021FA04F642EB060171
:1006B0005EEA430E08BF20EAD37070BDC4F10C049B
:1006C000C4F1200500FA04F320FA05F001FA04F25F
:1006D00040EA020001F0004110EBD37041F100014B
:1006E0005EEA430E08BF20EAD37070BDC4F1200556
:1006F00000FA05F24EEA020E20FA04F301FA05F2BE
:1007000043EA020321FA04F001F0004121FA04F265
:1007100020EA020000EBD3705EEA430E08BF20EA35
:10072000D37070BD94F0000F0FD101F0004640006F
:1007300041EB010111F4801F08BF013CF7D041EAF1
:10074000060195F0000F18BF704703F000465200F5
:1007500043EB030313F4801F08BF013DF7D043EAC6
:100760000603704794EA0C0F0CEA135518BF95EA7C
:100770000C0F0CD050EA410618BF52EA4306D1D103
:1007800081EA030101F000414FF0000070BD50EA22
:10079000410606BF1046194652EA430619D094EAAC
:1007A0000C0F02D150EA013613D195EA0C0F05D196
:1007B00052EA03361CBF104619460AD181EA0301EA
:1007C00001F0004141F0FE4141F470014FF00000A2
:1007D00070BD41F0FE4141F4780170BD70B54FF03D
:1007E000FF0C4CF4E06C1CEA11541DBF1CEA1355BD
:1007F00094EA0C0F95EA0C0F00F0A7F8A4EB05049F
:1008000081EA030E52EA03354FEA013100F0888095
:100810004FEA03334FF0805545EA131343EA12635E
:100820004FEA022245EA111545EA10654FEA002613
:100830000EF000419D4208BF964244F1FD0404F5CC
:10084000407402D25B084FEA3202B61A65EB030528
:100850005B084FEA32024FF480104FF4002CB6EBE5
:10086000020E75EB030E22BFB61A754640EA0C0065
:100870005B084FEA3202B6EB020E75EB030E22BFA5
:10088000B61A754640EA5C005B084FEA3202B6EBE6
:10089000020E75EB030E22BFB61A754640EA9C00A5
:1008A0005B084FEA3202B6EB020E75EB030E22BF75
:1008B000B61A754640EADC0055EA060E18D04FEA33
:1008C000051545EA16754FEA06164FEAC30343EAD3
:1008D00052734FEAC2025FEA1C1CC0D111F4801FA0
:1008E0000BD141EA00014FF000004FF0004CB6E799
:1008F00011F4801F04BF01430020B4F1FD0C88BF38
:10090000BCF5E06F3FF6AFAEB5EB030C04BFB6EB42
:10091000020C5FEA500C50F1000041EB045170BD35
:100920000EF0004E4EEA113114EB5C04C2BFD4EB62
:100930000C0541EA045170BD41F480114FF0000EE6
:10094000013C90E645EA060E8DE60CEA135594EA62
:100950000C0F08BF95EA0C0F3FF43BAF94EA0C0F65
:100960000AD150EA01347FF434AF95EA0C0F7FF4DA
:1009700025AF104619462CE795EA0C0F06D152EA2E
:1009800003353FF4FDAE1046194622E750EA410612
:1009900018BF52EA43067FF4C5AE50EA41047FF423
:1009A0000DAF52EA43057FF4EBAE12E74FF0FF3C88
:1009B00006E000BF4FF0010C02E000BF4FF0010C59
:1009C0004DF804CD4FEA410C7FEA6C5C4FEA430CD2
:1009D00018BF7FEA6C5C1BD001B050EA410C0CBF21
:1009E00052EA430C91EA030F02BF90EA020F002083
:1009F000704710F1000F91EA030F58BF994208BFEA
:100A000090422CBFD8176FEAE37040F001007047A6
:100A10004FEA410C7FEA6C5C02D150EA013C07D1FD
:100A20004FEA430C7FEA6C5CD6D152EA033CD3D048
:100A30005DF8040B704700BF8446104662468C4642
:100A40001946634600E000BF01B5FFF7B7FF002875
:100A500048BF10F1000F01BD4DF808EDFFF7F4FF9E
:100A60000CBF012000205DF808FB00BF4DF808ED29
:100A7000FFF7EAFF34BF012000205DF808FB00BF4C
:100A80004DF808EDFFF7E0FF94BF012000205DF86E
:100A900008FB00BF4DF808EDFFF7CEFF94BF012023
:100AA00000205DF808FB00BF4DF808EDFFF7C4FF1C
:100AB00034BF012000205DF808FB00BF4FEA410C65
:100AC0007FEA6C5C02D150EA013C0AD14FEA430C48
:100AD0007FEA6C5C02D152EA033C02D14FF0000085
:100AE00070474FF0010070474FEA410212F50012C3
:100AF00015D211D56FF47873B3EB625212D94FEA65
:100B0000C12343F0004343EA505311F0004F23FA4E
:100B100002F018BF404270474FF00000704750EAA3
:100B2000013005D111F0004008BF6FF00040704760
:100B30004FF00000704700BF4FEA4102B2F1E043BE
:100B400024BFB3F5001CDCF1FE5C0DD901F0004CB4
:100B50004FEAC0024CEA5070B2F1004F40EB830004
:100B600008BF20F00100704711F0804F21D113F130
:100B70003872BCBF01F00040704741F480114FEA69
:100B80005252C2F11802C2F1200C10FA0CF320FAF2
:100B900002F018BF40F001004FEAC1234FEAD3230F
:100BA00003FA0CFC40EA0C0023FA02F34FEA430379
:100BB000CCE77FEA625307D150EA01331EBF4FF002
:100BC000FE4040F44000704701F0004040F0FE401D
:100BD00040F40000704700BF7BB972B90029BEBF66
:100BE00000204FF0004106E008BF00281CBF6FF056
:100BF00000414FF0FF3000F0B5B9ADF1080C6DE9E0
:100C000004CE002909DB002B1ADB00F04DF8DDF8DB
:100C100004E0DDE9022304B07047404261EB41018A
:100C2000002B1BDB00F040F8DDF804E0DDE90223D7
:100C300004B0404261EB4101524263EB4303704711
:100C4000524263EB430300F02FF8DDF804E0DDE9E6
:100C5000022304B0404261EB41017047524263EB12
:100C6000430300F021F8DDF804E0DDE9022304B0DD
:100C7000524263EB4303704753B94AB9002908BF96
:100C800000281CBF4FF0FF314FF0FF3000F06AB971
:100C9000ADF1080C6DE904CE00F006F8DDF804E0D3
:100CA000DDE9022304B070472DE9F047089D0C46AA
:100CB000002B4ED194468C458646B2FA82F262D918
:100CC0004AB1C2F12003914020FA03F30CFA02FC6E
:100CD000194300FA02FE4FEA1C471FFA8CF6B1FBDB
:100CE000F7F44FEA1E4307FB141143EA014304FBE8
:100CF00006F199420AD91CEB030304F1FF3080F09E
:100D00001281994240F20F81023C6344591A1FFA42
:100D10008EF3B1FBF7F007FB101143EA014300FB30
:100D200006F69E420AD91CEB030300F1FF3180F066
:100D3000FC809E4240F2F980634402389B1B40EAEB
:100D4000044000211DB1D3400022C5E90032BDE8B6
:100D5000F0878B4205D90DB1C5E900010021084695
:100D6000F5E7B3FA83F1002946D1A34202D39042BA
:100D7000C0F0F080861A64EB03030120002DE6D05A
:100D8000C5E90063E3E7002A40F09080A1EB0C0482
:100D90004FEA1C481FFA8CF70121B4FBF8F64FEA22
:100DA0001E4308FB164443EA044307FB06F098423F
:100DB00008D91CEB030306F1FF3402D2984200F27B
:100DC000CD8026461C1A1FFA8EF3B4FBF8F008FB00
:100DD000104443EA044300FB07F79F4208D91CEB89
:100DE000030300F1FF3402D29F4200F2B08020469C
:100DF000DB1B40EA0640A5E7C1F120068B4022FA42
:100E000006F71F4320FA06FC04FA01F343EA0C0339
:100E1000F44000FA01F8380C4FEA1349B4FBF0FE35
:100E20001FFA87FC00FB1E4449EA04440EFB0CF940
:100E3000A14502FA01F20AD93C190EF1FF3A80F0FD
:100E40008480A14540F28180AEF1020E3C44A4EBC7
:100E500009041FFA83F9B4FBF0F300FB134449EAD9
:100E6000044403FB0CFCA44507D93C1903F1FF30F3
:100E700067D2A44565D9023B3C4443EA0E40A0FB3F
:100E80000293A4EB0C049C42CE469C4651D34ED018
:100E900055B1B8EB0E0364EB0C0404FA06F6CB4034
:100EA0001E43CC40C5E90064002150E7C2F1200395
:100EB00020FA03F10CFA02FC24FA03F394400C43E9
:100EC0004FEA1C4800FA02FE1FFA8CF7B3FBF8F059
:100ED00008FB1031230C43EA014300FB07F1994260
:100EE00008D91CEB030300F1FF362CD299422AD912
:100EF000023863445B1AA4B2B3FBF8F108FB113368
:100F000044EA034401FB07F3A34208D91CEB0404A1
:100F100001F1FF3613D2A34211D902396444E41A15
:100F200041EA004139E70446F0E6084606E7C845CD
:100F3000AED2B9EB020E63EB070C0138A8E73146DD
:100F4000EDE7034699E73046D4E7D6467FE76344AA
:100F500002384DE70646234608460FE7023E634443
:100F600030E700BF704700BF10F8012B11F8013BBC
:100F7000012A28BF9A42F7D0D01A7047034613F8C7
:100F8000012B002AFBD1181A01387047000000001D
:100F900001F0FF01102A2BDB10F0070F08D010F82A
:100FA000013B013A8B422DD010F0070F42B3F6D12E
:100FB000F0B441EA012141EA014122F007047FF047
:100FC00000070023F0E80256083C85EA010586EA9E
:100FD000010685FA47F5A3FA87F586FA47F6A5FADA
:100FE00087F68EB9EED1F0BC01F0FF0102F00702E6
:100FF00032B110F8013B013A83EA010313B1F8D191
:101000000020704701387047002D06BF3546033871
:10101000073815F0010F07D1013015F4807F02BFAA
:10102000013015F4C03F0130F0BC0138704700BFFB
:101030000278014B1A7070476806002038B50C46DC
:10104000D0ED007AFDEEE77A17EE903A0A2B3FD802
:10105000DFE803F00618213E3E2A3E3E3E3E3500C4
:101060001E4D01222021284601F073FF42F210702C
:1010700005F0EBFD00222021284601F06AFF012344
:10108000237038BDD0ED020A90ED010A02F09CFFFA
:1010900001232370F5E7D0ED020A90ED010A03F079
:1010A0009DFA01232370ECE790ED031AD0ED020ABC
:1010B00090ED010A03F0D4FC01232370E1E74FF423
:1010C000FA63074A1360074A136003F09FFDD8E7ED
:1010D00000230B7003F05EFDD3E700BF0000024069
:1010E0002C0000202800002000B587B00D4B1868A8
:1010F000FFF7F2F9CDE900010B4B1868FFF7ECF9A7
:10110000CDE90201094B1868FFF7E6F9CDE90401C2
:101110000022694606480BF07BFA4FF47A7005F01E
:1011200094FDE3E73C000020380000203000002060
:101130000C060020F0B58BB00024059406940794AB
:101140000894099401942D4B1A6B42F004021A631F
:101150001A6B02F004020192019A02941A6B42F097
:1011600080021A631A6B02F080020292029A0394C0
:101170001A6B42F001021A631A6B02F00102039229
:10118000039A04941A6B42F002021A631B6B03F079
:1011900002030493049B1A4D22460221284601F0C3
:1011A000D8FE184E22462021304601F0D2FE42F2EF
:1011B000010305930694079405A9284601F0D2FD82
:1011C00002230593012706970794089405A928464A
:1011D00001F0C8FD2023059306970794089405A9FC
:1011E000304601F0BFFD4FF48073059306940794D9
:1011F00005A9054801F0B6FD0BB0F0BD003802406E
:1012000000080240000002400004024010B582B015
:10121000002401940D4B1A6B42F400121A631B6BED
:1012200003F400130193019B22460521102002F0D4
:1012300051F9102002F05EF922460521112002F03A
:1012400049F9112002F056F902B010BD00380240F1
:101250002DE9F04393B03A4B01933A4B00933A4B4C
:101260003A4A3B4901200DF067F93A4F02A80CF0C9
:1012700053FDBE460DF1080CBCE80F00AEE80F00B0
:10128000DCF80030CEF80030334E3B4600221146E9
:1012900030460AF061FA314C3346314A3149204632
:1012A0000AF034FB08F064F802462F4B21462F4821
:1012B0000AF0D8FB0FF00CFC0246DFF8E0802C4B64
:1012C000214640460AF036FC0FF0FEFB0246DFF8EE
:1012D000D090284B214648460AF0F8FB264D3B4665
:1012E0000F223146284609F033FF244B0093244B4C
:1012F000244A4946284609F0CFFF00240094224B97
:10130000224A4146284609F093FF242221460DEB4C
:10131000020006F0A2F91E4B09934FF480630E936E
:1013200018230F9309AA21461A4805F02FFC1A4AE0
:10133000002311480AF0D6F9012005F086FCF6E7F3
:10134000857300084773000839730008217300088B
:1013500098030020100600202406002058060020D4
:10136000A8830108447A0108507A01080C0600207D
:101370005C7A0108687A0108780500203D100008B1
:10138000480500204C05002031100008040600200C
:10139000787A0108E9100008809698000806002075
:1013A0000006002010B5044602681E4B9A4204D085
:1013B0002368B3F1804F31D010BD03F063FF03F019
:1013C00083FD194B1A68194981FB0231D317C3EB0E
:1013D000A10303EB8303B2EB430F0DD04FF48071F5
:1013E000134801F0AFFD50B90022124B1A602021C2
:1013F000114801F0AEFDDBE703F078FEEEE74FF4B5
:1014000080710B4801F09EFD0128D1D10122094BCA
:101410001A602021084801F09CFDC9E702F088F815
:10142000CAE700BF001400400C080020676666662B
:1014300000040240640600200000024072B6FEE78D
:1014400010B592B000241094119409940A940B944E
:101450000C940D940E940F942022214601A806F0BE
:10146000FCF82D482D4B03604460846041F29413D6
:10147000C36004614461846100F002FE00283CD135
:1014800000231093119310A9234801F01BF80028A2
:1014900035D16023099300220A920B920C920D928F
:1014A0000E920F9209A91C4800F0A6FE48BB042228
:1014B00009A9194800F0A0FE28BB082209A916486E
:1014C00000F09AFE08BB0C2209A9134800F094FE14
:1014D000E8B90023019302930393049305934FF417
:1014E00000520692089301A90B4801F031F880B927
:1014F000094800F09BFA12B010BDFFF79FFFFFF7FD
:101500009DFFFFF79BFFFFF799FFFFF797FFFFF79F
:1015100095FFFFF793FF00BF00050020000001408A
:1015200000B58DB02422002103A806F096F8002310
:10153000019302931048114A0260436083604FF6A2
:10154000FF72C26003618361032303930123059348
:10155000099303A900F0C0FD50B900230193029341
:1015600001A9054800F0AEFF20B90DB05DF804FBFD
:10157000FFF764FFFFF762FFB8040020000400409B
:1015800000B58DB02422002103A806F066F80023E0
:10159000019302931048114A0260436083604FF642
:1015A000FF72C260036183610323039301230593E8
:1015B000099303A900F090FD50B900230193029311
:1015C00001A9054800F07EFF20B90DB05DF804FBCD
:1015D000FFF734FFFFF732FF7004002000080040DF
:1015E00000B583B00023009301930E480E4A0260B9
:1015F00053224260836040F2E732C260836100F0B0
:1016000013FD50B90023009301936946054800F08B
:1016100059FF20B903B05DF804FBFFF70FFFFFF798
:101620000DFF00BF280400200014004008B50A4840
:101630000A4B03604FF4E133436000238360C360CF
:1016400003610C2242618361C36102F079F800B941
:1016500008BDFFF7F3FE00BF9803002000440040E0
:1016600008B50848084B036000234360836040F2DC
:101670004732C2600361836100F0D6FC00B908BD47
:10168000FFF7DCFEE00300200020004000B595B02D
:101690003422002107A805F0E0FF00230293039302
:1016A00004930593069300931F4A116C41F08051F7
:1016B0001164126C02F080520092009A01931B494F
:1016C0000A6822F4404242F480420A600A6802F446
:1016D00040420192019A0222079201210A911021AF
:1016E0000B910D920E930F914FF4A8731093042356
:1016F00011931292139207A801F012F980B90F23E7
:10170000029302210391002304934FF48052059227
:10171000069302A800F048FF20B915B05DF804FB5D
:10172000FFF78CFEFFF78AFE003802400070004091
:1017300000B583B001F0E2FEFFF7A8FFFFF7FAFC67
:10174000FFF764FDFFF77CFEFFF7EAFEFFF718FFE7
:10175000FFF746FFFFF76AFFFFF782FFDFED1E1A74
:101760009FED1E1ADFED1E0A9FED1E0A03F0A8FC76
:10177000082301930C2300930423002241F29311C8
:10178000194803F015FA4FF0FF33009304234FF488
:101790007A721649164803F0D7FB012300930423FD
:1017A0004FF47A721349144803F0F0FB134800F029
:1017B000D7FA4FF461731A461946184603F070FBC6
:1017C00005F0B6F90E4A00210E4805F0DFF90E4B80
:1017D000186005F0BFF9FEE766E663430000AE431C
:1017E00090362242A2392242000500200008004023
:1017F0007004002000040040B804002028040020E9
:10180000907A010851120008D4020020FEE7FEE79A
:10181000FEE7FEE7FEE7704708B5024801F018FD55
:1018200008BD00BF3803002008B5024801F010FDD4
:1018300008BD00BFD802002008B5024800F0D8FA61
:1018400008BD00BF6C06002008B5024802F012F97E
:1018500008BD00BF9803002008B5044800F0C8FA8E
:10186000034A13680133136008BD00BFE003002082
:101870006006002008B5024800F0BAFA08BD00BFB3
:101880002804002000B583B0002200920D4B596C53
:1018900041F480415964596C01F4804100910099F0
:1018A0000192196C41F0805119641B6C03F0805354
:1018B0000193019B0F216FF0010001F00BFE03B0BB
:1018C0005DF804FB003802400268094B9A4200D0E0
:1018D000704782B000230193064B5A6C42F001021C
:1018E0005A645B6C03F001030193019B02B07047E3
:1018F000000001400038024000B58BB00023059382
:1019000006930793089309930368264A934205D0E8
:10191000254A934224D00BB05DF804FB00210191CD
:10192000224B1A6C42F002021A641A6C02F0020294
:101930000192019A02911A6B42F001021A631B6B29
:1019400003F001030293029BC02305930223069335
:1019500001220792099305A9154801F003FADAE775
:1019600000210391114B1A6C42F004021A641A6CA4
:1019700002F004020392039A04911A6B42F00202ED
:101980001A631B6B03F002030493049BC0230593AB
:101990000223069301220792099305A9054801F045
:1019A000E1F9B8E7000400400008004000380240B8
:1019B000000002400004024000B583B00368184AEA
:1019C000934205D0174A934216D003B05DF804FB4A
:1019D00000220092144B196C41F0200119641B6C19
:1019E00003F020030093009B0521372001F072FDD6
:1019F000372001F07FFDE8E7002201920A4B196CC5
:101A000041F4807119641B6C03F480730193019B92
:101A100005212D2001F05EFD2D2001F06BFDD4E7A6
:101A200000140040002000400038024000B587B09C
:101A300000230193029303930493059302680F4BD1
:101A40009A4202D007B05DF804FB002300930C4BD0
:101A50001A6B42F001021A631B6B03F0010300933F
:101A6000009B4FF4706301930223029301230593BB
:101A700001A9044801F076F9E4E700BF0000014045
:101A8000003802400000024030B589B000230393C3
:101A900004930593069307930268364B9A4201D04C
:101AA00009B030BD04460025019503F5FA331A6CE0
:101AB00042F400321A641A6C02F400320192019A64
:101AC00002951A6B42F001021A631B6B03F00103CB
:101AD0000293029B0C230393022304930323069394
:101AE0000723079303A9244801F03CF92348244B1A
:101AF00003604FF0006343608560C5604FF480630E
:101B00000361456185614FF48073C3614FF44033D5
:101B10000362456201F0A4FA28BB184BE3639C639F
:101B20001848194B03604FF0006343604023836003
:101B30000023C3604FF48062026143618361C3612B
:101B40004FF440320262436201F08AFA70B90D4BE1
:101B5000A3639C6300220521262001F0BBFC262004
:101B600001F0C8FC9CE7FFF769FCD6E7FFF766FCCD
:101B7000EDE700BF004400400000024038030020B1
:101B800088600240D8020020A060024030B589B0D1
:101B9000044600230193224B1A6C42F001021A649E
:101BA0001B6C03F001030193019B02A903A800F041
:101BB000D1FD069BD3B900F0ADFD0346194AA2FB47
:101BC00003239B0C013B18484FF08042026040F217
:101BD000E732C2604360002303618360836100F0E9
:101BE00023FA054630B1284609B030BD00F092FD19
:101BF0004300E3E70C4800F0B3F805460028F2D1B3
:101C00001C2001F077FC0F2C01D90125EBE7002205
:101C100021461C2001F05EFC044B1C60E3E700BF82
:101C20000038024083DE1B436C06002004000020C5
:101C300030B4036A026A22F00102026242688469D7
:101C400024F0730C0C6844EA0C0423F0020C8B683B
:101C500043EA0C03114DA84203D005F58065A84264
:101C600005D123F00803CD682B4323F004030B4D6B
:101C7000A84203D005F58065A84207D122F440723E
:101C80004D6945EA020C8A6942EA0C0242608461AD
:101C90004A684263036230BC704700BF00000140E5
:101CA00030B4036A026A22F4807202624268C46934
:101CB00024F0730C0C6844EA0C0523F400738C6860
:101CC00043EA0423114CA04203D004F58064A042EF
:101CD00006D123F40063CC6843EA042323F4806331
:101CE0000A4CA04203D004F58064A04207D122F43C
:101CF00040524C6942EA04128C6942EA0412426082
:101D0000C5614A68C263036230BC7047000001408D
:101D100030B4036A026A22F4805202624468C269E3
:101D200022F4E6420D6842EA052223F400538D684E
:101D300043EA0533094DA84203D005F58065A84262
:101D400004D124F480444D6944EA85144460C2619E
:101D50004A680264036230BC704700BF0000014063
:101D600090F83D30DBB2012B37D1022380F83D30B3
:101D70000268D36843F00103D3600368194A9342B1
:101D800020D0B3F1804F1DD0A2F57C42934219D0F0
:101D900002F58062934215D002F58062934211D021
:101DA00002F5784293420DD002F57052934209D069
:101DB000A2F59432934205D01A6842F001021A60EB
:101DC000002070479A6802F00702062A07D01A68B6
:101DD00042F001021A600020704701207047002085
:101DE000704700BF00000140704770477047704760
:101DF00070B504460368DE681D6915F0020F10D047
:101E000016F0020F0DD06FF002021A610123037762
:101E100003689B6913F0030F5ED0FFF7E6FF002312
:101E2000237715F0040F12D016F0040F0FD023689B
:101E30006FF004021A610223237723689B6913F46D
:101E4000407F4FD02046FFF7D0FF0023237715F0C7
:101E5000080F12D016F0080F0FD023686FF0080299
:101E60001A61042323772368DB6913F0030F40D042
:101E70002046FFF7BAFF0023237715F0100F12D08A
:101E800016F0100F0FD023686FF010021A610823AC
:101E900023772368DB6913F4407F31D02046FFF7B6
:101EA000A4FF0023237715F0010F02D016F0010FD5
:101EB0002DD115F0800F02D016F0800F2FD115F024
:101EC000400F02D016F0400F31D115F0200F02D094
:101ED00016F0200F33D170BDFFF786FF2046FFF7C5
:101EE00085FF9CE72046FFF77FFF2046FFF77EFF38
:101EF000ABE72046FFF778FF2046FFF777FFBAE70A
:101F00002046FFF771FF2046FFF770FFC9E72368FF
:101F10006FF001021A612046FFF744FAC9E723680F
:101F20006FF080021A61204600F03CFBC7E723688F
:101F30006FF040021A612046FFF759FFC5E723689A
:101F40006FF020021A61204600F02BFBC3E700006F
:101F50000368344A904212D0B0F1804F0FD0A2F5FE
:101F60007C4290420BD002F58062904207D002F58D
:101F70008062904203D002F57842904203D123F070
:101F800070034A681343274A90422AD0B0F1804F29
:101F900027D0A2F57C42904223D002F58062904285
:101FA0001FD002F5806290421BD002F57842904229
:101FB00017D002F57052904213D002F58062904221
:101FC0000FD002F5806290420BD0A2F59832904279
:101FD00007D002F58062904203D002F58062904201
:101FE00003D123F44073CA68134323F080034A6982
:101FF000134303608B68C3620B688362094B98428A
:1020000003D003F58063984201D10B690363012378
:102010004361036913F0010F03D0036923F0010347
:10202000036170470000014040B310B5044690F8CA
:102030003D30F3B1022384F83D30214651F8040BC2
:10204000FFF786FF012384F8463084F83E3084F899
:102050003F3084F8403084F8413084F8423084F8CE
:10206000433084F8443084F8453084F83D30002013
:1020700010BD80F83C30FFF79FFCDBE70120704784
:1020800040B310B5044690F83D30F3B1022384F814
:102090003D30214651F8040BFFF75AFF012384F825
:1020A000463084F83E3084F83F3084F8403084F87D
:1020B000413084F8423084F8433084F8443084F866
:1020C000453084F83D30002010BD80F83C30FFF7EB
:1020D000FBFBDBE701207047002853D0F8B50D4625
:1020E000044690F83D30002B47D0022384F83D3061
:1020F0002268936823F4804323F00703936021460A
:1021000051F8040BFFF724FF21688B688A690E6A77
:102110002868184322F4407222F00302AB68AF69CA
:1021200043EA0723134323F47C4323F0FC03EA68C8
:10213000EF6942EA07221A432B6A1B032F6943EA1D
:102140000713134326F0AA066A686D6942EA05126E
:102150003243886021688B6123681A62012384F806
:10216000463084F83E3084F83F3084F8423084F8BA
:10217000433084F83D300020F8BD80F83C30FFF754
:10218000BBFBB2E70120704730B4036A026A22F059
:10219000100202624468826922F4E6420D6842EA53
:1021A000052223F020038D6843EA0513114DA84250
:1021B00003D005F58065A84206D123F08003CD68E1
:1021C00043EA051323F040030A4DA84203D005F566
:1021D0008065A84207D124F440644D6944EA85042F
:1021E0008D6944EA8504446082614A6882630362BF
:1021F00030BC70470000014038B590F83C30012BEE
:1022000066D004460D46012380F83C300C2A5AD88B
:10221000DFE802F0075959591B5959593059595992
:1022200044000068FFF704FD2268936943F0080347
:1022300093612268936923F0040393612268936990
:1022400029690B43936100203EE00068FFF79CFF83
:102250002268936943F4006393612268936923F4CD
:102260008063936122689369296943EA012393613A
:10227000002029E00068FFF713FD2268D36943F0CE
:102280000803D3612268D36923F00403D361226871
:10229000D36929690B43D361002015E00068FFF77B
:1022A00037FD2268D36943F40063D3612268D369A0
:1022B00023F48063D3612268D369296943EA012347
:1022C000D361002000E00120002384F83C3038BDB9
:1022D0000220FCE701F01F014FF0010C0CFA01FC99
:1022E000036A23EA0C030362036A8A40134303620E
:1022F0007047000010B504460846002942D194F802
:102300003E30DBB2013B18BF0123002B6ED1002809
:1023100051D1022384F83E30012201462068FFF7A4
:10232000D9FF2368334A934203D002F58062934277
:1023300003D15A6C42F400425A6423682D4A9342F6
:1023400049D0B3F1804F46D0A2F57C42934242D0AF
:1023500002F5806293423ED002F5806293423AD009
:1023600002F57842934236D002F57052934232D051
:10237000A2F5943293422ED01A6842F001021A60FC
:10238000002032E0042908D008290DD094F841300B
:10239000DBB2013B18BF0123B7E794F83F30DBB253
:1023A000013B18BF0123B0E794F84030DBB2013B9A
:1023B00018BF0123A9E7042805D0082807D0022365
:1023C00084F84130A8E7022384F83F30A4E70223D1
:1023D00084F84030A0E79A6802F00702062A07D086
:1023E0001A6842F001021A60002010BD0120FCE7CB
:1023F0000020FAE70000014038B5044690F83E009E
:10240000C0B294F83F3094F84220D2B294F843C05E
:102410000D46B1B9012849D1012A48D1022384F8D7
:102420003E3084F842307DB3042D39D001220021A2
:102430002068FFF74FFF012204212068FFF74AFFC1
:1024400027E0DBB25FFA8CFC042912D0012833D1DB
:10245000012B2CD1012A31D1BCF1010F30D1022343
:1024600084F83E3084F83F3084F8423084F84330BA
:10247000D9E7012B1CD1BCF1010F1BD1022384F839
:102480003F3084F84330CEE7012200212068FFF777
:1024900021FF2268136843F001031360002006E067
:1024A000012204212068FFF715FFF2E7012038BD63
:1024B0000120FCE71846FAE70120F8E71846F6E79E
:1024C0001046F4E790F83C20012A3DD010B40346B2
:1024D000012280F83C20022280F83D2002685068EA
:1024E000946820F0700C086840EA0C0050601A688C
:1024F000164882421AD0B2F1804F17D0A0F57C4026
:10250000824213D000F5806082420FD000F58060D7
:1025100082420BD000F57840824207D000F570501F
:10252000824203D0A0F59430824204D124F080048A
:10253000496821439160012283F83D20002083F8FF
:102540003C005DF8044B70470220704700000140DA
:10255000024690F83C30012B21D0012380F83C301A
:10256000CB6823F440738868034323F4806348688E
:10257000034323F400630868034323F4805308698A
:10258000034323F400534869034323F48043C96998
:102590000B4311684B64002082F83C007047022016
:1025A0007047704770470000002800F09B8070B5AE
:1025B0000D4604464F4B1B6803F00F038B4208D2B5
:1025C000CBB24C4A1370136803F00F038B4240F0F8
:1025D0008B80236813F0020F17D013F0040F04D080
:1025E000454A936843F4E0539360236813F0080F5F
:1025F00004D0414A936843F4604393603E4A936831
:1026000023F0F003A1680B439360236813F0010FDC
:1026100032D06368012B21D09A1E012A25D9364A6F
:10262000126812F0020F61D033498A6822F0030267
:1026300013438B6000F088FF06462F4B9B6803F026
:102640000C036268B3EB820F16D000F07DFF801B95
:1026500041F288339842F0D9032042E0264A1268BA
:1026600012F4003FE0D101203BE0234A126812F04F
:10267000007FD9D1012034E01E4B1B6803F00F030B
:10268000AB4207D9EAB21B4B1A701B6803F00F0369
:10269000AB422DD1236813F0040F06D0164A93687D
:1026A00023F4E053E1680B439360236813F0080FB1
:1026B00007D0114A936823F46043216943EAC103B8
:1026C000936000F065F80C4B9B68C3F303130B4A4F
:1026D000D35CD8400A4B18600A4B1868FFF756FACB
:1026E000002070BD012070470120FAE70120F8E7C3
:1026F0000120F6E7003C024000380240C47A01089D
:102700000800002004000020014B1868704700BF3B
:102710000800002008B5FFF7F7FF044B9B68C3F3E0
:102720008223034AD35CD84008BD00BF0038024072
:10273000BC7A010808B5FFF7E7FF044B9B68C3F3B9
:102740004233034AD35CD84008BD00BF0038024082
:10275000BC7A01080F2303600B4B9A6802F0030256
:1027600042609A6802F0F00282609A6802F4E052D5
:10277000C2609B68DB0803F4E0530361034B1B68F2
:1027800003F00F030B60704700380240003C02402A
:1027900008B5604B9B6803F00C03082B07D00C2B8B
:1027A0005FD0042B01D05C4808BD5C48FCE7594B66
:1027B0005A6802F03F025B6813F4800F2CD0554B2F
:1027C0005868C0F388104FEA401CBCEB000C6EEB5D
:1027D0000E0E4FEA8E1343EA9C634FEA8C11B1EB65
:1027E0000C0163EB0E03DB0043EA5173C90011EBEC
:1027F000000C43F10003590200234FEA4C2041EA48
:10280000DC51FEF739FA434B5B68C3F301430133F4
:102810005B00B0FBF3F0C7E73E4B5868C0F388108D
:102820004FEA401CBCEB000C6EEB0E0E4FEA8E1311
:1028300043EA9C634FEA8C11B1EB0C0163EB0E038E
:10284000DB0043EA5173C90011EB000C43F10003B4
:10285000990200234FEA8C2041EA9C51FEF70CFAC2
:10286000D1E72C4B5A6802F03F025B6813F4800FEB
:102870002AD0284B5868C0F388104FEA401CBCEBA4
:10288000000C6EEB0E0E4FEA8E1343EA9C634FEA88
:102890008C11B1EB0C0163EB0E03DB0043EA5173C7
:1028A000C90011EB000C43F10003590200234FEA69
:1028B0004C2041EADC51FEF7DFF9164B5B68C3F3AD
:1028C0000273B0FBF3F06FE7124B5868C0F3881047
:1028D0004FEA401CBCEB000C6EEB0E0E4FEA8E1361
:1028E00043EA9C634FEA8C11B1EB0C0163EB0E03DE
:1028F000DB0043EA5173C90011EB000C43F1000304
:10290000990200234FEA8C2041EA9C51FEF7B4F96A
:10291000D3E700BF003802400024F40000127A0020
:10292000002800F0018270B582B00446036813F0FD
:10293000010F41D0994B9B6803F00C03042B32D05C
:10294000964B9B6803F00C03082B27D0934B9B6896
:1029500003F00C030C2B59D06368B3F5803F5BD0B8
:10296000B3F5A02F5ED08D4B1A6822F480321A6026
:102970001A6822F480221A606368002B5CD000F091
:10298000E3FD0546854B1B6813F4003F14D100F0AE
:10299000DBFD401B6428F5D90320CCE17F4B5B684D
:1029A00013F4800FD2D07D4B1B6813F4003F03D08B
:1029B0006368002B00F0BA81236813F0020F60D027
:1029C000764B9B6813F00C0F4AD0744B9B6803F056
:1029D0000C03082B3FD0714B9B6803F00C030C2BAE
:1029E00069D0E368002B75D06D4B01221A6000F0AE
:1029F000ABFD0546694B1B6813F0020F61D100F077
:102A0000A3FD401B0228F5D9032094E1634B5B68CA
:102A100013F4800FA0D0C6E7604A136843F48033F4
:102A20001360A9E75D4B1A6842F480221A601A68A5
:102A300042F480321A609FE700F086FD0546574B4E
:102A40001B6813F4003FB7D000F07EFD401B6428E4
:102A5000F5D903206FE1514B5B6813F4800FBAD1B5
:102A60004E4B1B6813F0020F03D0E368012B40F0BC
:102A70005F814A4A136823F0F803216943EAC103DE
:102A80001360236813F0080F49D06369002B33D01B
:102A9000434B0122C3F8802E00F056FD05463F4B04
:102AA0005B6F13F0020F3AD100F04EFD401B02287D
:102AB000F5D903203FE1394B5B6813F4800F90D1C7
:102AC000CEE7364A136823F0F803216943EAC103CD
:102AD0001360D6E7324B00221A6000F035FD054640
:102AE0002E4B1B6813F0020FCBD000F02DFD401BC6
:102AF0000228F5D903201EE1294B0022C3F8802EBD
:102B000000F022FD0546254B5B6F13F0020F06D047
:102B100000F01AFD401B0228F5D903200BE12368C1
:102B200013F0040F76D01D4B1B6C13F0805F33D174
:102B300000230193194B1A6C42F080521A641B6CEB
:102B400003F080530193019B0125164B1B6813F47E
:102B5000807F29D0A368012B3AD0052B3ED00F4BA4
:102B60001A6F22F001021A671A6F22F004021A6724
:102B7000A368002B3CD000F0E7FC0646074B1B6F18
:102B800013F0020F45D100F0DFFC801B41F28833C7
:102B90009842F3D90320CEE00025D6E70038024062
:102BA00000004742007000406B4A136843F4807392
:102BB000136000F0C9FC0646674B1B6813F4807F66
:102BC000C8D100F0C1FC801B0228F5D90320B2E077
:102BD000624A136F43F001031367C9E75F4B1A6F33
:102BE00042F004021A671A6F42F001021A67BFE747
:102BF00000F0AAFC0646594B1B6F13F0020F08D0D9
:102C000000F0A2FC801B41F288339842F3D90320E4
:102C100091E0EDB9A369002B00F08C804F4A9268D7
:102C200002F00C02082A54D0022B17D04C4B002281
:102C30001A6600F089FC0446484B1B6813F0007FBD
:102C400045D000F081FC001B0228F5D9032072E07A
:102C5000424A136C23F080531364DBE7404B00229D
:102C60001A6600F071FC05463C4B1B6813F0007FB0
:102C700006D000F069FC401B0228F5D903205AE079
:102C8000E369226A1343626A43EA8213A26A520822
:102C9000013A43EA0243E26A43EA0263226B43EAEF
:102CA00002732E4A53602E4B01221A6600F04CFC30
:102CB00004462A4B1B6813F0007F06D100F044FC49
:102CC000001B0228F5D9032035E0002033E0002066
:102CD00031E0012B31D0214B5B6803F48001E269C4
:102CE00091422CD103F03F02216A8A4229D1616AC4
:102CF00047F6C0721A40B2EB811F24D103F4403171
:102D0000A26A5208013AB1EB024F1ED103F0706281
:102D1000E16AB2EB016F1AD103F0E043226BB3EB2F
:102D2000027F16D1002006E001207047012002E05A
:102D3000012000E0002002B070BD0120FBE701206F
:102D4000F9E70120F7E70120F5E70120F3E701208B
:102D5000F1E70120EFE700BF0070004000380240BB
:102D60000000474200230F2B00F2E38070B582B0D1
:102D700065E085684FEA430E032404FA0EF425EA61
:102D80000405CC6804FA0EF42C438460446824EAF9
:102D900002044A68C2F300129A40224342605CE097
:102DA000DC08083450F8242003F00705AD004FF08C
:102DB0000F0E0EFA05FE22EA0E0E0A69AA4042EA3A
:102DC0000E0240F824205CE0062200E0002202FA15
:102DD0000EF22A430234574D45F82420564A94688F
:102DE0006FEA0C0224EA0C054E6816F4801F01D02D
:102DF0004CEA0405504CA560E46802EA04054E68FC
:102E000016F4001F01D04CEA04054B4CE5606468E1
:102E100002EA04054E6816F4003F01D04CEA0405AE
:102E2000454C6560246822404D6815F4803F01D010
:102E30004CEA0402404C226001330F2B77D8012268
:102E40009A400C6804EA020C32EA0404F4D14C689B
:102E500004F00304013C012C8BD94A6802F0030200
:102E6000032A09D0C4685D000322AA4024EA0204B0
:102E70008A68AA402243C2604A6802F00302022A1A
:102E80008ED004684FEA430E032202FA0EF224EABF
:102E900002044A6802F0030202FA0EF222430260C0
:102EA0004A6812F4403FC7D000220192234A546C72
:102EB00044F480445464526C02F480420192019ABA
:102EC0009C08A51C1B4A52F8255003F0030E4FEA3C
:102ED0008E0E0F2202FA0EF225EA0205184A9042DF
:102EE0003FF474AF02F58062904216D002F5806222
:102EF000904214D002F58062904212D002F58062B6
:102F0000904210D002F5806290420ED002F58062AD
:102F100090423FF459AF072259E7012257E70222B6
:102F200055E7032253E7042251E705224FE702B099
:102F300070BD704700380140003C0140003802403D
:102F4000000002400369194201D0012070470020AF
:102F500070470AB18161704709048161704730B4DC
:102F600005682C6824F480242C60046863608368FE
:102F7000402B05D0036899600368DA6030BC704765
:102F800003689A600368D960F8E7000010B403682A
:102F9000D9B210390C4AA2FB014212090B4CA25CB7
:102FA000C2655F2909D923F47F7323F00303043337
:102FB0008365806D5DF8044B704723F47F7323F0C5
:102FC00003038365F5E700BFABAAAAAAB47A010898
:102FD000836A826992B9012B0AD0022B02D00BB10D
:102FE00000207047C36A13F0807F28D1002070470B
:102FF000C36AB3F1C07F24D000207047B2F5005FF0
:1030000009D0022B25D9032B25D1C36A13F0807F69
:1030100023D100207047032B03D8DFE803F014040A
:10302000140A00207047C36A13F0807F0DD100207E
:103030007047C36AB3F1C07F09D0002070470120F8
:103040007047012070470120704701207047012020
:103050007047012070470020704701207047000032
:1030600070B5044600F070FA002C5BD005460223D0
:1030700084F83530002384F834302268136823F054
:103080000103136023681A6812F0010F0AD000F0E0
:103090005BFA431B052BF5D920236365032084F8D5
:1030A000350070BD1A68204911406268A06802436B
:1030B000E06802432069024360690243A069024359
:1030C000E0690243206A02430A43616A04291ED070
:1030D0001A602668756925F00705636A1D43042B8D
:1030E00007D1A36A1D43E36A1BB12046FFF770FFB7
:1030F00090B975612046FFF749FFE26D3F23934089
:10310000836000206065012384F83530C9E7E16AF7
:10311000206B01430A43DBE740236365012084F809
:103120003500BEE70120BCE73F8010F038B504460B
:10313000856D90F8340001282BD0012084F83400EC
:1031400094F83500C0B2012804D0002384F834304C
:10315000022038BD022084F835000020606520463A
:10316000FFF7FDFEE26D3F239340AB6022681368DA
:1031700043F016031360236C23B12268136843F0F5
:10318000080313602268136843F0010313600020F2
:10319000DFE70220DDE770B50446866D00F0D4F964
:1031A00094F83530DBB2022B06D080236365002310
:1031B00084F83430012070BD05462268136823F07E
:1031C000160313602268536923F080035361236C54
:1031D000E3B12268136823F00803136022681368C0
:1031E00023F00103136023681B6813F0010F11D053
:1031F00000F0AAF9431B052BF5D9202363650320B2
:1032000084F83500002384F83430D4E7A36C002B15
:10321000DFD1E3E7E26D3F239340B360012384F8FD
:103220003530002084F83400C5E790F83530DBB243
:10323000022B03D08023436501207047052380F8CB
:1032400035300268136823F00103136000207047D3
:10325000F0B583B0044600230193724B1D68724B96
:10326000A3FB0535AD0A876D3E68C26D0823934008
:10327000334210D003681A6812F0040F0BD01A689A
:1032800022F004021A60C26D08239340BB60436DB4
:1032900043F001034365E26D01239340334209D0BB
:1032A0002268526912F0800F04D0BB60636D43F056
:1032B00002036365E26D04239340334209D0226820
:1032C000126812F0020F04D0BB60636D43F0040378
:1032D0006365E26D10239340334224D02268126864
:1032E00012F0080F1FD0BB6023681A6812F4802FF9
:1032F0000DD01B6813F4002F04D1236C9BB1204622
:10330000984710E0A36C73B1204698470BE01A6809
:1033100012F4807F03D11A6822F008021A60236C2D
:103320000BB120469847E26D20239340334255D09D
:103330002268126812F0100F50D0BB6094F835303C
:10334000DBB2052B0ED023681A6812F4802F33D01D
:103350001B6813F4002F2AD1636C002B3ED020464B
:1033600098473BE02268136823F016031360226835
:10337000536923F080035361236CA3B1226813685F
:1033800023F008031360E26D3F239340BB600123E9
:1033900084F83530002384F83430236D002B3FD07F
:1033A000204698473CE0A36C002BE7D1EBE7E36BAA
:1033B000A3B12046984711E01A6812F4807F09D122
:1033C0001A6822F010021A60012384F835300023B5
:1033D00084F83430E36B0BB120469847636DFBB142
:1033E000636D13F0010F17D0052384F83530226880
:1033F000136823F001031360019B01330193AB4277
:1034000004D823681B6813F0010FF5D1012384F859
:103410003530002384F83430E36C0BB120469847F4
:1034200003B0F0BD08000020B5814E1B002807DB6B
:1034300000F01F02400901239340024A42F8203065
:10344000704700BF00E100E0002808DB0901C9B2B5
:1034500000F1604000F5614080F80013704700F013
:103460000F000901C9B2014B1954704714ED00E077
:1034700000B500F00700C0F1070CBCF1040F28BF35
:103480004FF0040C031D062B0FD9C31E4FF0FF3E57
:103490000EFA0CF021EA000199400EFA03FE22EA2E
:1034A0000E0241EA02005DF804FB0023EEE7000093
:1034B000074AD36823F4E0631B041B0C000200F4EA
:1034C000E060034343F0BF6343F40033D3607047CD
:1034D00000ED00E010B50446054BD868C0F30220AB
:1034E000FFF7C6FF01462046FFF7AEFF10BD00BF45
:1034F00000ED00E008B5FFF799FF08BD08B50B4BDC
:103500001A6842F400721A601A6842F480621A6003
:103510001A6842F480721A600320FFF7C9FF0F2077
:10352000FEF734FBFEF7AEF9002008BD003C024078
:10353000034A1168034B1B780B441360704700BFAC
:10354000B406002000000020014B1868704700BF3F
:10355000B4060020026802F10C0353E8003F23F098
:10356000C0030C3242E800310029F3D1202380F857
:1035700041307047026802F10C0353E8003F23F426
:1035800090730C3242E800310029F3D1026802F155
:10359000140353E8003F23F00103143242E80031E2
:1035A0000029F3D1036B012B05D0202380F8423092
:1035B000002303637047026802F10C0353E8003FE5
:1035C00023F010030C3242E800310029F3D1ECE77C
:1035D00090F84130DBB2212B01D002207047836884
:1035E000B3F5805F17D0036A5A1C02621A78036829
:1035F0005A60C38C9BB2013B9BB2C3844BB9026837
:10360000D36823F08003D3600268D36843F040039B
:10361000D360002070470369002BE4D1036A1B8844
:103620000268C3F308035360036A02330362E0E7EE
:1036300010B504460268136923F44053C1680B4374
:103640001361836802691A4343691A43C3691A43C1
:103650000168CB6823F4164323F00C031343CB60BB
:103660000268536923F4407381690B435361036813
:10367000314A934206D002F58062934202D0FFF7AE
:1036800049F801E0FFF756F8E369B3F5004F29D098
:103690000021031849411B1841F10001C90041EA0A
:1036A0005371DB00181863684FEA83024FEA937383
:1036B00041F10001FDF7E0FA204AA2FB003149097F
:1036C000642303FB11031B013233A2FB03235B09B9
:1036D00003F0F00202EB011203F00F032168134420
:1036E0008B6010BD0023021843EB0301121841F157
:1036F0000001C90041EA5271D200101841F10001E5
:10370000626892185B41FDF7B7FA0C4AA2FB0031E0
:103710004909642303FB1103DB003233A2FB0323BB
:103720005B095A0002F4F87202EB011203F007037E
:10373000216813448B60D4E7001001401F85EB51D2
:1037400060B310B5044690F8413013B3242384F8D5
:1037500041302268D36823F40053D3602046FFF73A
:1037600067FF2268136923F4904313612268536949
:1037700023F02A0353612268D36843F40053D360D3
:1037800000206064202384F8413084F84230606374
:1037900010BD80F84030FEF777F9D7E70120704779
:1037A00038B5134690F84120D2B2202A2FD10446D2
:1037B00000292ED00BB9012038BD01628384C38457
:1037C00000224264212084F84100A06B124DC563A1
:1037D000A06B124D0564A06B114DC564A06B026512
:1037E00022680432A06BFFF7A1FC23686FF040024F
:1037F0001A60226802F1140353E8003F43F080038B
:10380000143242E800310029F3D10020D4E702202D
:10381000D2E70120D0E700BFAB3800081339000819
:103820002339000810B5044603685A6990F84130FE
:10383000DBB2212B0AD023685A6902F0400294F8C7
:103840004230DBB2222B19D0002010BD02F08002E2
:10385000002AF0D0226802F1140353E8003F23F05D
:103860008003143242E800310029F3D1A06B08B183
:10387000FFF791FC2046FFF76DFEDCE7002AE3D05E
:10388000226802F1140353E8003F23F0400314328E
:1038900042E800310029F3D1E06B08B1FFF77BFC6F
:1038A0002046FFF767FECFE7704708B50346806BF9
:1038B0001B681B6813F4807F1AD10023C38402683D
:1038C00002F1140353E8003F23F08003143242E86E
:1038D00000310029F3D1026802F10C0353E8003FE4
:1038E00043F040030C3242E800310029F3D108BD17
:1038F000FFF7DAFFFBE708B50168CA6822F040026B
:10390000CA60202280F84120FFF7CEFF002008BDCA
:10391000704708B5806BFFF7FBFF08BD7047704725
:10392000704710B5846B23685A6994F84130DBB254
:10393000212B10D023685A6902F0400294F84230DB
:10394000DBB2222B11D0636C43F01003636420467A
:10395000FFF7E6FF10BD02F08002002AEAD0002344
:10396000E3842046FFF7F6FDE4E7002AEBD00023CE
:10397000E3852046FFF7FEFDE5E708B5806B0023F1
:10398000C385C384FFF7CCFF08BD704790F8423071
:10399000DBB2222B69D18368B3F5805F4FD0826A96
:1039A000B3F5805F04D0002B56D10369002B53D1AF
:1039B00003685B681370836A01338362C38D9BB2B3
:1039C000013B9BB2C385002B51D100B583B0026887
:1039D000D36823F02003D3600268D36823F4807394
:1039E000D3600268536923F001035361202380F8F8
:1039F000423000234363036B012B33D10023036365
:103A0000026802F10C0353E8003F23F010030C326C
:103A100042E800310029F3D103681A6812F0100F50
:103A200006D0002201921A6801925B680193019B03
:103A3000818DFFF7AAFF002003B05DF804FB026947
:103A4000002AACD1826A03685B68C3F30803138061
:103A5000836A02338362B1E703685B6803F07F0324
:103A60001370A8E7FFF75AFFE5E702207047002030
:103A70007047000010B582B0044602681368D06831
:103A8000516913F00F0F09D113F0200F0CD010F073
:103A9000200F09D02046FFF779FF16E011F0010151
:103AA00015D110F4907F12D1216B012979D013F038
:103AB000800F03D010F0800F40F0148113F0400FFE
:103AC00003D010F0400F40F0118102B010BD13F090
:103AD000010F06D010F4807F03D0626C42F0010227
:103AE000626413F0040F04D019B1626C42F0020258
:103AF000626413F0020F04D019B1626C42F0040248
:103B0000626413F0080F07D010F0200F00D119B134
:103B1000626C42F008026264626C002AD5D013F035
:103B2000200F02D010F0200F29D123685B6903F029
:103B30004003626C12F0080F00D163B32046FFF718
:103B400019FD23685B6913F0400F20D0226802F151
:103B5000140353E8003F23F04003143242E80031DD
:103B60000029F3D1E36B73B1624A1A65E06BFFF78A
:103B70005CFB0028A9D0E06B036D9847A5E72046C1
:103B8000FFF704FFD1E72046FFF7CAFE9DE7204676
:103B9000FFF7C6FE99E72046FFF7C2FE00236364E5
:103BA00093E713F0100F82D010F0100F3FF47FAFA7
:103BB000002301931368019353680193019B536998
:103BC00013F0400F52D0E26B13685B689BB2002B7E
:103BD0003FF47BAFA18D99427FF677AFE385D36940
:103BE000B3F5807F37D0226802F10C0353E8003F21
:103BF00023F480730C3242E800310029F3D12268AB
:103C000002F1140353E8003F23F00103143242E8A9
:103C100000310029F3D1226802F1140353E8003F78
:103C200023F04003143242E800310029F3D120236D
:103C300084F8423000232363226802F10C0353E826
:103C4000003F23F010030C3242E800310029F3D189
:103C5000E06BFFF7A0FA02236363A18DE38D9BB2B3
:103C6000C91A89B22046FFF790FE2EE7A18DE38D99
:103C70009BB2C91A89B2E38D9BB2002B3FF425AFEA
:103C800000293FF422AF226802F10C0353E8003F01
:103C900023F490730C3242E800300028F3D12268FC
:103CA00002F1140353E8003F23F00103143242E809
:103CB00000300028F3D1202384F84230002323630E
:103CC000226802F10C0353E8003F23F010030C328A
:103CD00042E800300028F3D1022363632046FFF757
:103CE00054FEF2E62046FFF773FCEEE62046FFF7AF
:103CF00002FEEAE67B39000808B5806B01234363C6
:103D0000036B012B02D0FFF70AFE08BD818D490825
:103D1000FFF73BFEF9E708B50346806B1B681B689D
:103D200013F4807F2BD10023C385026802F10C03BA
:103D300053E8003F23F480730C3242E8003100293D
:103D4000F3D1026802F1140353E8003F23F00103AA
:103D5000143242E800310029F3D1026802F1140361
:103D600053E8003F23F04003143242E800310029B9
:103D7000F3D1202380F84230036B012B07D00023BE
:103D80004363036B012B0FD0FFF7C8FD08BD02682A
:103D900002F10C0353E8003F23F010030C3242E819
:103DA00000310029F3D1EAE7818DFFF7EEFDEDE761
:103DB00030B583B004461346816282850025456490
:103DC000222280F84220C26B1F48D063E26B1F485A
:103DD0001064E26B1E48D064E26B156520680A46E9
:103DE000011DE06BFFF7A2F9019523681A680192A3
:103DF0005B680193019B23695BB1226802F10C03AC
:103E000053E8003F43F480730C3242E8003100294C
:103E1000F3D1226802F1140353E8003F43F0010399
:103E2000143242E800310029F3D1226802F1140370
:103E300053E8003F43F04003143242E800310029C8
:103E4000F3D1002003B030BD173D0008F93C000855
:103E50002339000808B590F84230DBB2202B08D196
:103E600049B10AB9012008BD00230363FFF7A0FF91
:103E7000F9E70220F7E70120F5E70000034AD2F84E
:103E8000883043F47003C2F88830704700ED00E0DA
:103E900010B503460C4A0D490D48006840B10C4866
:103EA00000680344521A934206D8094A136010BDB1
:103EB0000748084C0460F2E703F074FC0C2303602D
:103EC0004FF0FF30F3E700BF0000022000040000C5
:103ED000B806002058A500200120704708B503F05F
:103EE00061FC162303604FF0FF3008BD08B54FF0AA
:103EF000FF31FFF7F3FFFEE770B50C4616460025CD
:103F000006E0AFF30080214601F8010B01350C46B5
:103F1000B542F6DB304670BD70B50C46164600253E
:103F200004E014F8010BAFF300800135B542F8DB73
:103F3000304670BD4FF0FF3070474FF400534B6078
:103F4000002070470120704700207047B4EEE00A5F
:103F5000F1EE10FA07D4B4EEC10AF1EE10FA04DD66
:103F6000B0EE410A7047B0EE600A704700230D4A78
:103F700013600D4A13600D4A136000230C4A13604E
:103F80000C4A1360002200230B49C1E900230B49AE
:103F9000C1E900230A49C1E900230A49C1E9002314
:103FA000704700BFE4070020A8070020A0070020FA
:103FB0002007002024070020D0060020C006002093
:103FC000D8060020C80600202DE9F04F2DED048B07
:103FD00087B0B0EE408AF0EE608AFFF7C7FFF0EEE0
:103FE000C87ACDED037A28EEA87A774B93ED009A44
:103FF000C7EE097A9DED037AB4EEE77AF1EE10FA96
:1040000012D4F6EE007A68EEA77A67EEA87A87EE09
:10401000897A6E4B83ED007A6D4B83ED007A4FF019
:10402000000ACDF808A0FDE017EE100AFCF754FADC
:1040300063A3D3E90023FCF7A7FA0022654BFCF742
:10404000A3FAFCF779FD07EE900A604B1860604B0D
:10405000186039EE099A67EE897A17EE900AFCF734
:104060003BFA41EC100B03F08DFD51EC100BFCF70B
:1040700063FD08EE900AD2E7574B01221A603FE138
:10408000554B1A68322303FB02F309EE103AB8EEDF
:10409000C99A07EE902AF8EEE79A504BD3ED007AD2
:1040A0004F4B93ED007A77EE877AF0EEE77A17EED2
:1040B000900AFCF711FA04460D46434B1868FCF7CA
:1040C0000BFA22462B46FCF75FFA41EC100B03F08B
:1040D00059FD51EC100B0022424BFCF79DF8FCF708
:1040E0002BFD9FED411ADFED410A00EE100AFFF7AC
:1040F0002DFF69EE809A39EE299A3D4B83ED009AA7
:1041000038E1354B1B6803EB8302520007EE902A1F
:10411000F8EEE79A07EE903AB8EEE79A2A4BD3ED1D
:10412000007A77EEA77A17EE900AFCF7D5F90446E5
:104130000D462A4BD3ED007A294B93ED007A77EEAA
:10414000877AB6EE007A67EE877A77EEC87AF0EE75
:10415000E77A17EE900AFCF7BFF902460B462046B5
:104160002946FCF711FA41EC100B03F00BFD51EC62
:10417000100B00221F4BFCF74FF8FCF7DDFC9FED06
:104180001A1ADFED1A0A00EE100AFFF7DFFE29EE19
:10419000000A79EE807A164BC3ED007AEAE0DDE999
:1041A0000401FCF7A1FC144B186032463B46504614
:1041B0005946FCF731F8114BC3E9000142E100BF59
:1041C000CDCCCCCCCCCCE43F240000200407002094
:1041D000000700200000E03FE0060020E407002088
:1041E000A80700200000494000007A4400000000B9
:1041F000E4060020000024402C000020D00600200F
:1042000000F004FDB24B1B68DA17B2480168406841
:104210005B1A62EB0002B0490B604A600A2B72F134
:104220000002EFD3AD4BD3ED007A77EEC87AF0EE13
:10423000E77AB0EE007AF4EEC77AF1EE10FA0CDC11
:10424000A74BD3ED007A77EEC87AF0EEE77AF4EE7A
:10425000C77AF1EE10FA40F3A881DDED027AF8EEAC
:10426000E77A67EEA87A9FED9F7AC7EE877A17EE16
:10427000900AFCF731F904460D460398FCF72CF937
:104280000022994BFCF780F90022984BFCF7A6FA24
:104290000022974BFBF7C2FF02460B4620462946F9
:1042A000FCF7E4FB002800F08081924B1B78002B88
:1042B00040F07B81904B1B68002B40F07681029B85
:1042C00001330293824B1A68824BD1171A605960EE
:1042D000824BD3ED007A824B93ED007A77EE877AAA
:1042E000B6EE007A67EE877A77EEC87AF5EEC07A96
:1042F000F1EE10FA3FF5C0AE804B4FF0FF321A607E
:10430000764BD3ED007A764B93ED007A77EE877A91
:10431000B6EE007A67EE877AF0EEE77A784B93EDA7
:10432000007AF4EEC77AF1EE10FA3FF5A9AE6B4BC6
:10433000D3ED007A6A4B93ED007A77EE877AB6EE8A
:10434000007A67EE877A77EEC87AF0EEE77A6D4BFF
:1043500093ED007AF4EEC77AF1EE10FA3FF5D1AEA4
:10436000664BD3ED007AF8EEE77A67EEA87A664BF3
:10437000C3ED007A644B1868FCF7AEF806460F46AA
:10438000CDE90067614BD3E90023FBF745FF064603
:104390000F465F4BC3E900675E4CD4E90023FBF78F
:1043A0003DFF82468B46C4E900AB5B4B1868FCF7C7
:1043B00093F832463B46FCF7E7F804460D46CDE954
:1043C0000445564B1868FCF787F852465B46FCF7E5
:1043D000DBF802460B4620462946FBF71FFFFCF799
:1043E00083FB4F4B18604F4B1B684F4A1468A34226
:1043F00004DD4B4A14604D4A012111606542AB4215
:1044000004DA484B1D60494B01221A604FF0010944
:104410000022002330463946FCF746FB08B94FF02E
:104420000009434BC3F800903E4B1B68002BD4BFE0
:10443000002301233F4A13603C4A126812B1994598
:104440003FF4ADAE394B00221A603B4BD3E9002359
:10445000DDE90001FBF7E0FE82468B46374BC3E9FE
:1044600000AB374ED6E90023FBF7D8FE80468946DD
:10447000C6E90089334B1868FCF72EF852465B46B4
:10448000FCF782F806460F462F4B1868FCF724F815
:1044900042464B46FCF778F802460B463046394612
:1044A000FBF7BCFEFCF720FB284B1860284B1B6871
:1044B0009C4204DA254A14601C4A012111609D4285
:1044C00048DD234B1D60194B01221A6042E000BFFA
:1044D0000C0800201007002018070020E407002027
:1044E000A80700200000FA430080764000408F407B
:1044F000000049406806002064060020E006002015
:104500000407002000070020E4060020D807002050
:10451000D8060020D00600201C0000201800002033
:104520002C000020F806002048070020F00600209C
:10453000EC060020E806002098070020C8060020AE
:10454000C0060020140000201000002028000020D9
:10455000FC06002001240022002350465946FCF7A7
:10456000A3FA00B90024164B1C60164B1B68002BE5
:10457000D4BF00230123144A1360144A1268002A8E
:104580003FF43EAE9C427FF43BAE30463946FCF7EA
:10459000ABFA0F4B186052465B4640464946FBF764
:1045A0003BFE0C4BC3E900012AE60B4B00221A60CC
:1045B00000F0F0FA07B0BDEC048BBDE8F08F00BF4F
:1045C000EC060020FC060020E8060020F006002093
:1045D00028000020C0060020F40600202DE9F84342
:1045E0002DED048BF0EE408AB0EE608AFFF7BEFC42
:1045F000DFED3E7A68EEA77A3D4B93ED007A67EEE9
:10460000877ADFED3C6A87EEA67A3B4B83ED007A32
:10461000B0EEC77A78EE087A67EE887A374BD3ED3A
:10462000006A87EEA66AB4EEC67AF1EE10FA0AD4F2
:1046300028EE087AC7EE267A314BC3ED007A314B6B
:10464000C3ED007AF4E0F6EE007A27EE277A2C4BE1
:1046500083ED007A2B4B83ED007A66EE877A17EEB6
:10466000900AFBF739FF41EC100B03F08BFA51EC89
:10467000100BFCF761FA08EE100AD9E0224B012278
:104680001A6024E1204BD3ED008AF8EEE88A1F4B34
:10469000D3ED007A1E4B93ED007A77EEC77AF0EEF9
:1046A000E77A17EE900AFBF717FF04460D46134B07
:1046B0001868FBF711FF22462B46FBF765FF41EC1C
:1046C000100B03F05FFA51EC100BFCF735FA9FED7D
:1046D000111ADFED110A00EE100AFFF737FC68EE41
:1046E000808A0E4BC3ED008A24E000BFDB0F4940F7
:1046F00074070020000034430C0700202000002035
:104700000407002000070020E0060020E407002046
:10471000A807002000007A4400004842E406002078
:104720009C4BD3ED007AF8EEE77A67EE887A9A4BE5
:10473000C3ED007A984BD3F80080984BD3E900453D
:104740004046FBF7C9FE22462B46FBF765FD0646B1
:104750000F46934BC3E90067DFF89092D9E9002335
:10476000FBF75CFD04460D46C9E900458D4B186812
:10477000FBF7B2FE32463B46FBF706FF06460F4606
:10478000894B1868FBF7A8FE22462B46FBF7FCFE78
:1047900002460B4630463946FBF740FDFCF7A4F9CC
:1047A000824B186088F00040FBF796FE804BD3E9FF
:1047B0000023FBF731FD06460F467E4BC3E9006739
:1047C000DFF82C82D8E90023FBF728FD04460D46CC
:1047D000C8E90045784B1868FBF77EFE32463B4639
:1047E000FBF7D2FE06460F46744B1868FBF774FEC3
:1047F00022462B46FBF7C8FE02460B46304639469A
:10480000FBF70CFDFCF770F96D4B186000F0FEF93A
:104810006C4B1B68DA176C48016840685B1A62EBE6
:1048200000026A490B604A600A2B72F10002EFD362
:10483000674BD3ED007A674B93ED007A77EEC77A3A
:10484000F0EEE77A644BD3ED008AB0EEE89AF4EE2E
:10485000C97AF1EE10FA20D45D4BD3ED007A5D4BAE
:1048600093ED007A77EEC77AF0EEE77A17EE900ACA
:10487000FBF732FE04460D4619EE100AFBF72CFE3C
:1048800000224FF08043FBF7C9FC02460B4620464E
:104890002946FCF709F9002876D04A4B1A684A4B9A
:1048A000D1171A6059604A4BD3ED007A494B93ED0A
:1048B000007A77EEC77A77EEE87AF5EEC07AF1EE15
:1048C00010FA3FF5DBAE334B4FF0FF321A60404B2E
:1048D000D3ED007A3F4B93ED007A77EEC77AF0EE96
:1048E000E77A3E4B93ED007AF4EEC77AF1EE10FAD8
:1048F0003FF5C8AE364BD3ED007A364B93ED007AD8
:1049000077EEC77A77EEE87AF0EEE77A344B93EDFC
:10491000007AF4EEC77AF1EE10FA7FF501AF1D4B85
:1049200093ED009AB8EEC99A294BD3ED007A294B42
:1049300093ED007A77EEC77A77EEE87AF0EEE77AD1
:1049400017EE900AFBF7C8FD04460D46254B186884
:10495000FBF7C2FD22462B46FBF716FE41EC100B7F
:1049600003F010F951EC100BFCF7E6F89FED1E1A5E
:10497000F2EE040A00EE100AFFF7E8FA29EE009AB8
:10498000054B83ED009AD5E600F004F9BDEC048BED
:10499000BDE8F883E0060020E4060020D8070020E8
:1049A000D80600201C000020180000202C00002049
:1049B00098070020C80600201400002010000020E6
:1049C000280000200C0800201007002018070020F5
:1049D000E4070020A80700200C070020040700209F
:1049E000000700202000002000007A44D0060020AC
:1049F000C006002008B5154BD3ED007A30EE670AEB
:104A0000134B83ED000ADFED137AB4EEE70AF1EE03
:104A100010FA05DDDFED107A30EE670A83ED000A4B
:104A20000B4BD3ED007A9FED0D7AF4EEC77AF1EEE1
:104A300010FA05D59FED087A77EE877AC3ED007AF4
:104A4000034B93ED000AFFF7C9FD08BD30000020BD
:104A500008070020000034430000B443000034C3C2
:104A600038B52DED068BF0EE408AB0EE608AB0EEE0
:104A7000419A434BD3ED009A70EEE99A414A92ED88
:104A8000000A30EE680AD2ED007A77EEE87A20EE7E
:104A9000270AD3ED007A77EEE07A93ED007A37EECD
:104AA000607A67EE877A30EE270A03F099F989EE8B
:104AB000800A03F069F9B5EEC00AF1EE10FA5BDD89
:104AC0000123314A136007EE903AB8EEE7AA2D4C65
:104AD000D4ED009A78EEE99A94ED000A30EE680A77
:104AE000D4ED007A77EEE87A20EE270A244DD5ED52
:104AF000007A77EEC87A95ED007A37EE487A67EE5D
:104B0000877A30EE270A03F06BF989EE800A03F00A
:104B10000FF910EE100AFBF7DFFC41EC100B00F070
:104B200097FB2AEE000A194B83ED000AF0EE490AC2
:104B3000FFF760FF94ED000A30EE680AD4ED007ACA
:104B400077EEE87A20EE270AD5ED007A77EEC87A7C
:104B500095ED007A37EE487A67EE877A30EE270ACD
:104B600003F03EF90A4B83ED000AF0EE490AFFF725
:104B70002BFABDEC068B38BD4FF0FF33A1E700BF29
:104B8000380000203C000020E0060020080700203C
:104B90000C070020054B1A68116800234B6311684D
:104BA0008B631168CB631268136470475C07002045
:104BB00038B5104C2060104D296010490A60104A29
:104BC0001360049A0F4B1A60059A0F4B1A6000216C
:104BD000FDF790FB04212068FDF78CFB082120687D
:104BE000FDF788FB0C212068FDF784FBFFF7D2FF5F
:104BF00038BD00BF5C070020480700205807002090
:104C000054070020500700204C070020814B1B68F0
:104C1000002B68DD804A1268934201DD7D4B1A60EB
:104C20007E4B1B68002B2FD17D4B1B681B68794A7C
:104C300012685A637B4B1B68002B3ED1784B1B6874
:104C40001B6800225A63784B1B68002B40F3C68018
:104C5000714A1268934201DD734B1A60734B1B68F3
:104C6000002B40F08C806E4B1B681B686E4A1268EC
:104C70005A636F4B1B68002B40F09A80684B1B688F
:104C80001B6800225A637047042B08D0082B0DD0F4
:104C9000634B1B681B685F4A12681A64CAE7604B63
:104CA0001B681B685B4A12689A63C3E75C4B1B680E
:104CB0001B68584A1268DA63BCE7042B07D0082B3C
:104CC0000BD0574B1B681B6800221A64BBE7544B80
:104CD0001B681B6800229A63B5E7514B1B681B6871
:104CE0000022DA63AFE74C4A12685242934201DA7B
:104CF000484B1A60494B1B687BB9494B1B681B68C2
:104D000000225A63474B1B68EBB9454B1B681A6876
:104D1000404B1B685B42536395E7042B07D0082B7D
:104D20000BD03F4B1B681B6800221A64EAE73C4B20
:104D30001B681B6800229A63E4E7394B1B681B68F9
:104D40000022DA63DEE7042B09D0082B0FD0344BA6
:104D50001B681A682F4B1B685B42136473E7304B68
:104D60001B681A682B4B1B685B4293636BE72C4BE9
:104D70001B681A68274B1B685B42D36363E7042BED
:104D800008D0082B0DD0264B1B681B68264A1268DA
:104D90001A646EE7224B1B681B68234A12689A63E9
:104DA00067E71F4B1B681B681F4A1268DA6360E7DE
:104DB000042B07D0082B0BD0194B1B681B68002253
:104DC0001A647047164B1B681B6800229A63704771
:104DD000134B1B681B680022DA6370470E4A126887
:104DE0005242934201DA104B1A60104B1B680BBB06
:104DF0000B4B1B681B6800225A630D4B1B68002B72
:104E00002ED1074B1B681A68074B1B685B42536324
:104E1000704700BF2C0000204807002058070020E2
:104E20005C070020540700202800002050070020C5
:104E30004C070020042B07D0082B0BD0164B1B6807
:104E40001B6800221A64D8E7134B1B681B680022FA
:104E50009A63D2E7104B1B681B680022DA63CCE729
:104E6000042B09D0082B0FD00B4B1B681A680B4B77
:104E70001B685B4213647047074B1B681A68074B3B
:104E80001B685B4293637047034B1B681A68034BB4
:104E90001B685B42D36370475C070020280000203A
:104EA00010B4054C20600548016005490A60054AB8
:104EB00013605DF8044B7047440700204007002052
:104EC0003C0700203807002010B4184B1A68184B14
:104ED0001A60184B1B6818490B60184909680029AB
:104EE0001ADB14480124046000291ADB0F49012051
:104EF00008600E4909688A4203D011490A680132E4
:104F00000A600C4A1268934203D00E4A13680133B8
:104F100013605DF8044B704706484FF0FF3404609F
:104F2000E2E702494FF0FF300860E2E73007002077
:104F300028070020340700202C0700202C00002028
:104F4000200700202407002010B50A4C20600A4CDE
:104F500021600A490A600A4A1360029A094B1A60E2
:104F60000021FDF749FA226800235362064A1360C4
:104F700010BD00BF08080020040800200008002021
:104F8000FC070020F8070020E807002010B50A4CB5
:104F900020600A4C21600A490A600A4A1360029A9A
:104FA000094B1A600021FDF727FA2268002353629B
:104FB000064A136010BD00BFCC070020C8070020C0
:104FC000C4070020C0070020BC070020AC07002059
:104FD000164B1A6816490A60164A1268526A164831
:104FE000006800FB02F21A601B680A689B1A134AE9
:104FF0001360126847F230539A4205DD0F4A136876
:10500000A3F57F43FF3B13600C4B1A680C4B9A428D
:1050100005DA0A4A136803F57F43FF331360094A30
:105020001368064909680B4413607047F4070020B1
:10503000F007002004080020F8070020EC070020FB
:10504000D08AFFFFE8070020164B1A6816490A604D
:10505000164A1268526A1648006800FB02F21A608B
:105060001B680A689B1A134A1360126847F2305390
:105070009A4205DD0F4A1368A3F57F43FF3B136097
:105080000C4B1A680C4B9A4205DA0A4A136803F56E
:105090007F43FF331360094A1368064909680B44CC
:1050A00013607047B8070020B4070020C80700202D
:1050B000BC070020B0070020D08AFFFFAC0700200B
:1050C000064B83ED000A064BC3ED000A054B83ED4A
:1050D000001A054BC3ED001A704700BF7807002087
:1050E0007C07002074070020700700202DE9F84F8E
:1050F0002DED028B3E4C94ED007AF2EE048AC7EE61
:10510000287A9FED3C8A67EE887A17EE900AFBF7C3
:10511000E3F9394DC5E9000100272760374E96EDC8
:10512000007AC7EE287A67EE887A17EE900AFBF7C6
:10513000D3F9334CC4E900013760324F0022324BBF
:10514000D7E90001FBF74AFB0022304BFBF71CFAC2
:105150002F4EC6E9000100220023C7E90023D5E94C
:105160000001D4E90023FBF759F80022294BFBF793
:105170000BFA80468946284F3868D6E900ABFBF722
:10518000ABF952465B46FBF7FFF90022214BFBF7D8
:10519000FBF902460B4640464946FBF73FF81F4BDA
:1051A000C3E90001D5E90001D4E90023FBF736F893
:1051B0000022184BFBF7E8F904460D463868D6E99B
:1051C0000067FBF789F932463B46FBF7DDF9002221
:1051D000104BFBF7D9F902460B4620462946FBF750
:1051E0001BF80F4BC3E90001BDEC028BBDE8F88F43
:1051F000E007002000007A44D0070020A407002028
:1052000090070020600700200000244000408F40ED
:10521000680700200000E03F70070020D80700204A
:1052200098070020430007EE903AF8EEE77A9FEDEA
:10523000077A67EE877A67EE807A02FB01F107EE64
:10524000101AB8EEC70A87EE800A7047DB0F494094
:1052500008B551EC100B0022094BFBF795F906A39A
:10526000D3E90023FBF7BAFAFBF766FC00EE100A5D
:1052700008BD00BFAFF3008000000060FB211940B3
:10528000008076402DE9F047FFF7A2FEFFF7DCFE35
:105290007C4B18687C4B93ED000A7C4B1A687C4B66
:1052A0001968FFF7BFFF7B4D85ED000A95ED007A89
:1052B000794BD3ED007A77EE877AC3ED007A95EDDE
:1052C000007A764BD3ED007A77EE877AC3ED007AD9
:1052D000734B1868734B93ED000A734B1A68734B4A
:1052E0001968FFF79FFF724C84ED000A94ED007A75
:1052F000704BD3ED007A77EE877AC3ED007A94EDA8
:10530000007A6D4BD3ED007A77EE877AC3ED007AA1
:10531000D5ED007A94ED007A77EE877AB6EE007AD2
:1053200067EE877A654FC7ED007A97ED007A644B98
:10533000D3ED007A77EE877AC3ED007AD7F800A034
:10534000604E3068FBF7C8F841EC100B02F048FCE7
:1053500059EC108B5046FBF7BFF842464B46FBF723
:1053600013F980468946DFF884A1DAF80000FBF7DC
:10537000B3F842464B46FAF751FFFBF7DDFBCAF89C
:1053800000003F683068FBF7A7F841EC100B02F013
:105390007BFC59EC108B3846FBF79EF842464B4697
:1053A000FBF7F2F880468946474F3868FBF794F8D8
:1053B00042464B46FAF732FFFBF7BEFB3860D5EDAD
:1053C000007A94ED007A77EEC77A404BD3ED006A0D
:1053D00087EEA67AD6ED007A77EE877AC6ED007A68
:1053E000D5ED007A94ED007A77EEC77A93ED007AE6
:1053F000C7EE877A17EE900AFBF76EF8344CD4E9C3
:105400000023FAF70BFFC4E9000108E02D4BD3EDB0
:10541000007A9FED307A77EEC77AC3ED007A294B98
:1054200093ED007ADFED2C7AB4EEE77AF1EE10FA24
:10543000ECDC08E0234BD3ED007A9FED267A77EE83
:10544000877AC3ED007A1F4B93ED007ADFED237A64
:10545000B4EEE77AF1EE10FAECD41868FBF73CF8FA
:1054600041EC100BFFF7F4FE1D4B83ED000A1D4AC3
:105470001368013313601C4A136801331360BDE8DD
:10548000F08700BFEC07002078070020FC07002011
:105490000008002088070020E4070020E007002023
:1054A000B00700207C070020C0070020C4070020B0
:1054B00084070020A8070020A40700208007002000
:1054C000A0070020340000203800002074070020CE
:1054D00060070020DB0FC940DB0F4940DB0F49C0EC
:1054E00030000020100800200C0800203C000020A4
:1054F00000F1080343604FF0FF328260C360036134
:1055000000230360704700230361704743684B60CA
:105510009A688A605160996008610368013303608A
:10552000704730B40D68B5F1FF3F11D000F10803AA
:105530001C465B681A68AA42FAD963684B60996096
:105540008C606160086103680133036030BC7047A0
:105550000469F2E70369416882688A6041685160C2
:105560005A68824206D0002202611A68013A1A6023
:105570001868704782685A60F5E710B5044601F074
:1055800019FDA26BE36B9A4204D0002401F034FDB4
:10559000204610BD0124F9E710B5044601F00AFDCC
:1055A000A36B23B9012401F027FD204610BD002480
:1055B000F9E770B504461546866B026C5AB9036864
:1055C0001BB100200136A66370BD806801F032F87F
:1055D0000023A360F6E76DB9406802F010F9636834
:1055E000226C13446360A268934219D323686360FA
:1055F0002846E7E7C06802F002F9E368226C5142EE
:105600009B1AE3602268934202D2A3680B44E360D2
:10561000022D01D00020D5E726B1013E0020D1E7C0
:105620002846CFE70020CDE70346026C6AB110B5EB
:105630000846D9681144D9609C68A14201D3196811
:10564000D960D96802F0DBF810BD704738B505465F
:1056500001F0B0FC95F8454064B201E0013C64B251
:10566000002C0ADD6B6A43B105F1240000F01CFF39
:105670000028F3D000F0C8FFF0E7FF2385F845309D
:1056800001F0BAFC01F096FC95F8444064B201E0E8
:10569000013C64B2002C0ADD2B6943B105F1100016
:1056A00000F002FF0028F3D000F0AEFFF0E7FF2388
:1056B00085F8443001F0A0FC38BD38B5E0B10D46A6
:1056C000044601F077FC2368E26B216C01FB023099
:1056D000A0600020A0636360013A02FB0133E36035
:1056E000FF2384F8443084F84530FDB9236963B959
:1056F00001F082FC012038BD4FF0500383F3118884
:10570000BFF36F8FBFF34F8FFEE704F1100000F07F
:10571000CBFE0028ECD04FF0E0234FF08052C3F8CE
:10572000042DBFF34F8FBFF36F8FE1E704F110003B
:10573000FFF7DEFE04F12400FFF7DAFED8E738B504
:105740001D46049C0B4649B92460E0632364012193
:105750002046FFF7B2FF84F84C5038BD2260F4E7D2
:1057600040B94FF0500383F31188BFF36F8FBFF33D
:105770004F8FFEE710B584B01C46844653B192B1FA
:1057800089B94FF0500383F31188BFF36F8FBFF3D4
:105790004F8FFEE74FF0500383F31188BFF36F8FF5
:1057A000BFF34F8FFEE76AB150230393039B502B47
:1057B00013D04FF0500383F31188BFF36F8FBFF303
:1057C0004F8FFEE70029EFD04FF0500383F311888D
:1057D000BFF36F8FBFF34F8FFEE7039B012384F866
:1057E000463000949DF818306046FFF7A8FF204629
:1057F00004B010BDF0B585B0019288B10F461D46CA
:105800000446B1B1022D20D1E36B012B1DD04FF026
:10581000500383F31188BFF36F8FBFF34F8FFEE701
:105820004FF0500383F31188BFF36F8FBFF34F8F97
:10583000FEE7036C002BE5D04FF0500383F3118893
:10584000BFF36F8FBFF34F8FFEE700F0E3FE064616
:1058500058B9019B002B48D04FF0500383F31188B7
:10586000BFF36F8FBFF34F8FFEE700263DE02A4660
:1058700039462046FFF79DFE636A7BB948B14FF079
:10588000E0234FF08052C3F8042DBFF34F8FBFF3D6
:105890006F8F01F0B1FB012005B0F0BD04F12400D1
:1058A00000F002FE0028F4D04FF0E0234FF08052C9
:1058B000C3F8042DBFF34F8FBFF36F8FE9E701F0FB
:1058C0009BFB0020E8E702A800F050FE012619E04B
:1058D000002384F8443021E0002384F8453023E09D
:1058E0002046FFF7B3FE00F0B7FC01F063FBA26BAC
:1058F000E36B9A42BBD3022DB9D0019B002BDED0C3
:10590000002EE0D001F078FB00F00CFC01F052FB1F
:1059100094F8442052B2B2F1FF3FD9D094F8452018
:1059200052B2B2F1FF3FD7D001F066FB01A902A845
:1059300000F028FED8B92046FFF71FFE0028CFD080
:10594000019904F1100000F07BFD2046FFF77EFE78
:1059500000F082FC0028C8D14FF0E0234FF08052C5
:10596000C3F8042DBFF34F8FBFF36F8FBDE7204601
:10597000FFF76CFE00F070FC00208DE72DE9F84386
:1059800090B10F4616461C460546B1B1022C20D1F7
:10599000EB6B012B1DD04FF0500383F31188BFF345
:1059A0006F8FBFF34F8FFEE74FF0500383F31188E3
:1059B000BFF36F8FBFF34F8FFEE7036C002BE5D073
:1059C0004FF0500383F31188BFF36F8FBFF34F8FF6
:1059D000FEE701F015FCEFF311884FF0500383F35D
:1059E0001188BFF36F8FBFF34F8FAA6BEB6B9A4297
:1059F00006D3022C04D0002088F31188BDE8F88378
:105A000095F845904FFA89F9AB6B224639462846FE
:105A1000FFF7CFFDB9F1FF3F06D009F101035BB2FB
:105A200085F845300120E7E76B6A0BB90120E3E711
:105A300005F1240000F038FD18B126B101203060D6
:105A4000DAE70120D8E70120D6E7F0B585B001926A
:105A500090B10F460446C1B100F0DCFD064600BB24
:105A6000019B002B5ED04FF0500383F31188BFF3EE
:105A70006F8FBFF34F8FFEE74FF0500383F3118812
:105A8000BFF36F8FBFF34F8FFEE7036C002BE3D0A4
:105A90004FF0500383F31188BFF36F8FBFF34F8F25
:105AA000FEE700263EE039462046FFF7BDFD013DFA
:105AB000A563236923B901F09FFA012005B0F0BD69
:105AC00004F1100000F0F0FC0028F4D04FF0E023C7
:105AD0004FF08052C3F8042DBFF34F8FBFF36F8F89
